:0A024B00C0F9A4B0999282F88090E7
:0401F1007F037E000A
:1001F500D3EF9400EE940040147D6E7C00ED1D70ED
:0D020500011CED4C70F7EF1F70E61E80E34A
:0102120022C9
:10021300758910D28ED2ABD2AF758D3C758BB0225F
:03001B000201C11E
:1001C100C0E0C0D0758D3C758BB0050BE50B70029E
:1001D100050AC39414E50A64809480400E750A00F0
:1001E100750B00E509150970021508D0D0D0E03271
:10016E00AE08AF097C007D0A1200E38F828E83AE4B
:10017E0008AF097C007D0A1200E3AB05AA04744B9C
:10018E002582F58274023583F583E493F5907580AC
:10019E00041201F1E4F580AE02AF03744B2FF58229
:1001AE0074023EF583E493F5907580081201F1E434
:0201BE00F580CA
:0101C000221C
:0D02320075900C75800D1201F1E4F580222D
:0F022300EF90024B93F590D2801201F1C280222E
:10000300E50945087011D2A7C2B6D2B7C28EF5086A
:08001300F50912016E80E922DB
:10001E00120213C2A7120232C28E20A2F67F1E7ED9
:10002E00001201F520A2EC30A2FD75080075091E24
:10003E00E4F50AF50BD28E12016E20A20F7F1E7E02
:10004E00001201F520A20530A2FDD28E20B00F7F46
:10005E001E7E001201F520B00530B0FDC28E30A319
:10006E000930A40630A50320A665308E627F1E7E61
:10007E00001201F530A30930A40630A50320A64FC7
:10008E0020A303750C0120A403750C0220A5037593
:10009E000C0320A603750C0430A3FD30A4FA30A582
:1000AE00F730A6F4C28EC2B775080075090FE4F5D5
:1000BE000AF50BD3E509940FE5086480948050E8A7
:1000CE00D28E12016EAF0C12022312000380E412C4
:0500DE000003020045D3
:0300000002023FBA
:0C023F00787FE4F6D8FD75810C02001EEB
:1000E300C2D5EC30E709B2D5E4C39DFDE49CFCEE38
:1000F30030E715B2D5E4C39FFFE49EFE120119C396
:10010300E49DFDE49CFC800312011930D507C3E490
:060113009FFFE49EFE22A6
:10011900BC000BBE0029EF8DF084FFADF022E4CCCA
:10012900F875F008EF2FFFEE33FEEC33FCEE9DEC93
:10013900984005FCEE9DFE0FD5F0E9E4CEFD22EDD9
:10014900F8F5F0EE8420D21CFEADF075F008EF2F23
:10015900FFED33FD4007985006D5F0F222C398FD14
:050169000FD5F0EA22B1
:00000001FF
